S01600004C45445F53706565645F47616D652E7372656310
S11300000C944C000C94E0000C940D010C943A01F7
S11300100C9469000C9469000C9469000C946900B8
S11300200C9469000C9469000C9469000C946900A8
S11300300C9469000C9469000C9469000C94690098
S11300400C9469000C9469000C9469000C94690088
S11300500C94690041024C02570262026D0278025C
S113006083028E02AB02B602C102CC02D702E202C4
S1130070ED02F802C2030B0454049D04E6042F05A8
S11300807805C1050A06BE06070750079907E20767
S11300902B087408BD08060911241FBECFE5D8E05B
S11300A0DEBFCDBF10E0A0E6B0E0E0E8F3E102C0BF
S11300B005900D92A03AB107D9F720E0A0EAB0E08C
S11300C001C01D92A83AB207E1F70E94AF090C944F
S11300D0BE090C940000FC014130B1F018F042302C
S11300E029F10895218181E090E0AC0102C0440F20
S11300F0551F6A95E2F7BA016095862F82238183A2
S11301008281682362830895218181E090E0AC01BB
S113011002C0440F551F6A95E2F7BA01842F8095F7
S1130120822381838281682B62830895218181E007
S113013090E0AC0102C0440F551F6A95E2F7BA0182
S1130140622B61830895442389F04130F1F4FC016A
S1130150428121E030E0F90102C0EE0FFF1F6A95F1
S1130160E2F7BF01642BFC0162830895FC01428124
S113017021E030E0F90102C0EE0FFF1F6A95E2F7BB
S1130180BF0160956423FC0162830895FC018081B2
S113019021E030E0062E02C0220F331F0A94E2F75A
S11301A090E0822393239C0102C0359527956A959C
S11301B0E2F72130310511F080E0089581E00895DF
S11301C01F920F920FB60F9211242F933F934F93C8
S11301D05F936F937F938F939F93AF93BF93EF93AB
S11301E0FF938091A4009091A500892B29F0E091C0
S11301F0A400F091A5000995FF91EF91BF91AF91F3
S11302009F918F917F916F915F914F913F912F912A
S11302100F900FBE0F901F9018951F920F920FB65C
S11302200F9211242F933F934F935F936F937F9378
S11302308F939F93AF93BF93EF93FF938091A2000B
S11302409091A300892B29F0E091A200F091A300E2
S11302500995FF91EF91BF91AF919F918F917F91FC
S11302606F915F914F913F912F910F900FBE0F901F
S11302701F9018951F920F920FB60F9211242F936F
S11302803F934F935F936F937F938F939F93AF931A
S1130290BF93EF93FF938091A0009091A100892BCD
S11302A029F0E091A000F091A1000995FF91EF9150
S11302B0BF91AF919F918F917F916F915F914F917A
S11302C03F912F910F900FBE0F901F901895813082
S11302D079F120F0823009F455C008958BB78F7BF3
S11302E08BBF6130D9F028F0623089F0633041F07F
S11302F01BC085B78E7F85BF85B78D7F85BF14C032
S113030085B7816085BF85B78D7F85BF0DC085B7F3
S11303108E7F85BF85B7826085BF06C085B7816043
S113032085BF85B7826085BF8BB780648BBF089516
S11303308BB78F778BBF6130D9F028F0623089F0AA
S1130340633041F01BC085B78B7F85BF85B7877F3E
S113035085BF14C085B7846085BF85B7877F85BF97
S11303600DC085B78B7F85BF85B7886085BF06C004
S113037085B7846085BF85B7886085BF8BB7806883
S11303808BBF08958BB78F7D8BBF613031F06230A6
S113039039F484B78F7B84BF03C084B7806484BF7F
S11303A08BB780628BBF0895262F42E0682F822F7F
S11303B0972F0E946B0008951F93CF93DF93C82F4C
S11303C0862F972F162FD72F413051F018F0423037
S11303D061F017C040E06C2F972F0E94A30011C05A
S11303E041E06C2F0E94A3000CC06C2F972F0E9439
S11303F0C60041E0811140E06C2F812F9D2F0E94A7
S1130400A300DF91CF911F910895CF93DF93EC0167
S11304108B81882319F0813041F00DC040E06A815E
S1130420888199810E946B0006C041E06A818881BD
S113043099810E946B006A81888199810E94C6001B
S11304408C83DF91CF9108959FB790689FBF0E94DE
S1130450670108951092A7001092A6008BB78064DC
S11304608BBF8BB780688BBF08958091A70090E005
S11304708830910508F05DC0FC01E65DFF4F0C94E7
S1130480B8098091A7008F5F8093A7008091A60090
S113049081508093A60008958091A7008F5F809378
S11304A0A7008091A60081508093A60008958091B2
S11304B0A7008F5F8093A7008091A600815080934E
S11304C0A60008958091A7008F5F8093A700809174
S11304D0A60081508093A60008958091A7008F5FA5
S11304E08093A7008091A60081508093A600089570
S11304F08091A7008F5F8093A7008091A600815010
S11305008093A60008958091A7008F5F8093A70031
S11305108091A60081508093A60008958091A70041
S11305208F5F8093A7008091A60081508093A600DE
S113053008958091A7008F5F8093A700089580910C
S1130540A60090E08830910508F05DC0FC01EE5CE7
S1130550FF4F0C94B8098091A6008F5F8093A6008A
S11305608091A70081508093A70008958091A600F0
S11305708F5F8093A6008091A70081508093A7008D
S113058008958091A6008F5F8093A6008091A700B4
S113059081508093A70008958091A6008F5F809377
S11305A0A6008091A70081508093A70008958091B0
S11305B0A6008F5F8093A6008091A700815080934E
S11305C0A70008958091A6008F5F8093A600809174
S11305D0A70081508093A70008958091A6008F5FA3
S11305E08093A6008091A70081508093A70008956E
S11305F08091A6008F5F8093A6008091A700815010
S11306008093A70008958091A6008F5F8093A60031
S113061008958AE690E00E94050261E082E00E946B
S113062024028AE292E09093A1008093A0000895AE
S113063060919C0070919D0080919E000E94D40165
S11306406091990070919A0080919B000E94D4015E
S11306506091960070919700809198000E94D40157
S11306606091930070919400809195000E94D40150
S11306706091900070919100809192000E94D40149
S113068060918D0070918E0080918F000E94D40142
S113069060918A0070918B0080918C000E94D4013B
S11306A06091870070918800809189000E94D40134
S11306B085E690E00E94050261E080E00E94240249
S11306C085E392E09093A5008093A400089560913F
S11306D0840070918500809186000E94D40160910D
S11306E0810070918200809183000E94D401609106
S11306F07E0070917F00809180000E94D4016091FF
S11307007B0070917C0080917D000E94D4016091F7
S113071078007091790080917A000E94D4016091F0
S1130720750070917600809177000E94D4016091E9
S1130730720070917300809174000E94D4016091E2
S11307406F0070917000809171000E94D40180E666
S113075090E00E94050261E081E00E9424028FE99A
S113076092E09093A3008093A20008958091A70043
S113077090E08930910508F0F5C2FC01E65CFF4F7A
S11307800C94B80960919C0070919D0080919E002A
S113079040E00E94DC016091990070919A00809180
S11307A09B0040E00E94DC016091960070919700EC
S11307B08091980040E00E94DC0160919300709168
S11307C094008091950040E00E94DC0160919000CB
S11307D0709191008091920040E00E94DC01609150
S11307E08D0070918E0080918F0040E00E94DC01AA
S11307F060918A0070918B0080918C0040E00E948F
S1130800DC0160918700709188008091890040E04C
S11308100E94DC01A7C260919C0070919D008091B0
S11308209E0041E00E94DC016091990070919A0061
S113083080919B0040E00E94DC01609196007091E1
S113084097008091980040E00E94DC016091930041
S1130850709194008091950040E00E94DC016091C9
S11308609000709191008091920040E00E94DC0120
S113087060918D0070918E0080918F0040E00E9405
S1130880DC0160918A0070918B0080918C0040E0C3
S11308900E94DC016091870070918800809189003A
S11308A040E00E94DC015EC260919C0070919D005A
S11308B080919E0041E00E94DC016091990070915A
S11308C09A0080919B0041E00E94DC0160919600B7
S11308D0709197008091980040E00E94DC01609143
S11308E09300709194008091950040E00E94DC0197
S11308F060919000709191008091920040E00E947C
S1130900DC0160918D0070918E0080918F0040E039
S11309100E94DC0160918A0070918B0080918C00B0
S113092040E00E94DC016091870070918800809112
S1130930890040E00E94DC0115C260919C00709126
S11309409D0080919E0041E00E94DC01609199002D
S113095070919A0080919B0041E00E94DC016091BB
S11309609600709197008091980041E00E94DC010C
S113097060919300709194008091950040E00E94F2
S1130980DC0160919000709191008091920040E0B0
S11309900E94DC0160918D0070918E0080918F0027
S11309A040E00E94DC0160918A0070918B0080918C
S11309B08C0040E00E94DC01609187007091880007
S11309C08091890040E00E94DC01CCC160919C00D0
S11309D070919D0080919E0041E00E94DC01609135
S11309E0990070919A0080919B0041E00E94DC0183
S11309F060919600709197008091980041E00E9468
S1130A00DC0160919300709194008091950041E025
S1130A100E94DC016091900070919100809192009D
S1130A2040E00E94DC0160918D0070918E00809105
S1130A308F0040E00E94DC0160918A0070918B007D
S1130A4080918C0040E00E94DC01609187007091ED
S1130A5088008091890040E00E94DC0183C160919C
S1130A609C0070919D0080919E0041E00E94DC01F9
S1130A706091990070919A0080919B0041E00E94DE
S1130A80DC0160919600709197008091980041E09C
S1130A900E94DC0160919300709194008091950014
S1130AA041E00E94DC01609190007091910080917E
S1130AB0920041E00E94DC0160918D0070918E00F3
S1130AC080918F0040E00E94DC0160918A00709167
S1130AD08B0080918C0040E00E94DC0160918700D3
S1130AE0709188008091890040E00E94DC013AC145
S1130AF060919C0070919D0080919E0041E00E9455
S1130B00DC016091990070919A0080919B0041E012
S1130B100E94DC016091960070919700809198008A
S1130B2041E00E94DC0160919300709194008091F7
S1130B30950041E00E94DC01609190007091910069
S1130B408091920041E00E94DC0160918D007091DF
S1130B508E0080918F0041E00E94DC0160918A0048
S1130B6070918B0080918C0040E00E94DC016091C8
S1130B708700709188008091890040E00E94DC0128
S1130B80F1C060919C0070919D0080919E0041E0B5
S1130B900E94DC016091990070919A0080919B0001
S1130BA041E00E94DC016091960070919700809171
S1130BB0980041E00E94DC016091930070919400E0
S1130BC08091950041E00E94DC0160919000709159
S1130BD091008091920041E00E94DC0160918D00BF
S1130BE070918E0080918F0041E00E94DC01609141
S1130BF08A0070918B0080918C0041E00E94DC019E
S1130C0060918700709188008091890040E00E9483
S1130C10DC01A8C08BB78F7B8BBF8BB78F778BBF63
S1130C2060919C0070919D0080919E0041E00E9423
S1130C30DC016091990070919A0080919B0041E0E1
S1130C400E94DC0160919600709197008091980059
S1130C5041E00E94DC0160919300709194008091C6
S1130C60950041E00E94DC01609190007091910038
S1130C708091920041E00E94DC0160918D007091AE
S1130C808E0080918F0041E00E94DC0160918A0017
S1130C9070918B0080918C0041E00E94DC01609196
S1130CA08700709188008091890041E00E94DC01F6
S1130CB02FEF83EC99E0215080409040E1F700C091
S1130CC0000060919C0070919D0080919E0040E026
S1130CD00E94DC016091990070919A0080919B00C0
S1130CE040E00E94DC016091960070919700809131
S1130CF0980040E00E94DC016091930070919400A0
S1130D008091950040E00E94DC0160919000709118
S1130D1091008091920040E00E94DC0160918D007E
S1130D2070918E0080918F0040E00E94DC01609100
S1130D308A0070918B0080918C0040E00E94DC015D
S1130D4060918700709188008091890040E00E9442
S1130D50DC012FEF83EC99E0215080409040E1F7D3
S1130D6000C000008091A60090E08930910508F051
S1130D70F5C2FC01ED5BFF4F0C94B809609184004F
S1130D80709185008091860040E00E94DC016091B2
S1130D908100709182008091830040E00E94DC0118
S1130DA060917E0070917F008091800040E00E94FD
S1130DB0DC0160917B0070917C0080917D0040E0BB
S1130DC00E94DC01609178007091790080917A0032
S1130DD040E00E94DC016091750070917600809182
S1130DE0770040E00E94DC01609172007091730012
S1130DF08091740040E00E94DC0160916F0070916A
S1130E0070008091710040E00E94DC0108956091BF
S1130E108400709185008091860041E00E94DC018D
S1130E2060918100709182008091830040E00E9473
S1130E30DC0160917E0070917F008091800040E031
S1130E400E94DC0160917B0070917C0080917D00A8
S1130E5040E00E94DC0160917800709179008091FB
S1130E607A0040E00E94DC01609175007091760088
S1130E708091770040E00E94DC01609172007091E3
S1130E8073008091740040E00E94DC0160916F0067
S1130E90709170008091710040E00E94DC0108951F
S1130EA060918400709185008091860041E00E94E9
S1130EB0DC0160918100709182008091830041E0A7
S1130EC00E94DC0160917E0070917F00809180001F
S1130ED040E00E94DC0160917B0070917C00809175
S1130EE07D0040E00E94DC016091780070917900FF
S1130EF080917A0040E00E94DC016091750070915D
S1130F0076008091770040E00E94DC0160917200DD
S1130F10709173008091740040E00E94DC01609144
S1130F206F00709170008091710040E00E94DC01BC
S1130F30089560918400709185008091860041E05D
S1130F400E94DC0160918100709182008091830095
S1130F5041E00E94DC0160917E0070917F008091ED
S1130F60800041E00E94DC0160917B0070917C0074
S1130F7080917D0040E00E94DC01609178007091D6
S1130F80790080917A0040E00E94DC016091750054
S1130F90709176008091770040E00E94DC016091BE
S1130FA07200709173008091740040E00E94DC0133
S1130FB060916F00709170008091710040E00E9418
S1130FC0DC01089560918400709185008091860011
S1130FD041E00E94DC016091810070918200809167
S1130FE0830041E00E94DC0160917E0070917F00EB
S1130FF08091800041E00E94DC0160917B0070914F
S11310007C0080917D0041E00E94DC0160917800C9
S11310107091790080917A0040E00E94DC01609137
S11310207500709176008091770040E00E94DC01A9
S113103060917200709173008091740040E00E948E
S1131040DC0160916F00709170008091710040E04C
S11310500E94DC0108956091840070918500809164
S1131060860041E00E94DC01609181007091820061
S11310708091830041E00E94DC0160917E007091C8
S11310807F008091800041E00E94DC0160917B0040
S113109070917C0080917D0041E00E94DC016091B0
S11310A078007091790080917A0041E00E94DC011F
S11310B060917500709176008091770040E00E9405
S11310C0DC0160917200709173008091740040E0C3
S11310D00E94DC0160916F0070917000809171003A
S11310E040E00E94DC0108956091840070918500C5
S11310F08091860041E00E94DC0160918100709142
S113110082008091830041E00E94DC0160917E00B6
S113111070917F008091800041E00E94DC01609129
S11311207B0070917C0080917D0041E00E94DC0195
S1131130609178007091790080917A0041E00E947A
S1131140DC0160917500709176008091770041E038
S11311500E94DC01609172007091730080917400B0
S113116040E00E94DC0160916F00709170008091FA
S1131170710040E00E94DC01089560918400709148
S113118085008091860041E00E94DC01609181002D
S1131190709182008091830041E00E94DC016091A3
S11311A07E0070917F008091800041E00E94DC010C
S11311B060917B0070917C0080917D0041E00E94F1
S11311C0DC01609178007091790080917A0041E0AF
S11311D00E94DC0160917500709176008091770027
S11311E041E00E94DC016091720070917300809173
S11311F0740041E00E94DC0160916F007091700006
S11312008091710040E00E94DC0108958BB78F7BD0
S11312108BBF8BB78F778BBF6091840070918500F3
S11312208091860041E00E94DC0160918100709110
S113123082008091830041E00E94DC0160917E0085
S113124070917F008091800041E00E94DC016091F8
S11312507B0070917C0080917D0041E00E94DC0164
S1131260609178007091790080917A0041E00E9449
S1131270DC0160917500709176008091770041E007
S11312800E94DC016091720070917300809174007F
S113129041E00E94DC0160916F00709170008091C8
S11312A0710041E00E94DC012FEF83EC99E02150B2
S11312B080409040E1F700C000006091840070918C
S11312C085008091860040E00E94DC0160918100ED
S11312D0709182008091830040E00E94DC01609163
S11312E07E0070917F008091800040E00E94DC01CC
S11312F060917B0070917C0080917D0040E00E94B1
S1131300DC01609178007091790080917A0040E06E
S11313100E94DC01609175007091760080917700E5
S113132040E00E94DC016091720070917300809132
S1131330740040E00E94DC0160916F0070917000C5
S11313408091710040E00E94DC012FEF83EC99E072
S1131350215080409040E1F700C0000008950E94B1
S113136009030E9418030E9467030E94B603FDCF7D
S1131370EE0FFF1F0590F491E02D0994F894FFCF30
S11313803000030100300002010036000201003980
S11313900007390006390005390004390003390013
S11313A00239000139000033000733000633000519
S11313B03300043300033300023300013300000020
S9030000FC
